:020000040800F2
:10000000B00C0020050100083D360008A1310008B1
:1000100039360008BD0F00086D44000800000000DC
:10002000000000000000000000000000CD3A0008C1
:10003000BD10000800000000793A0008CF3A00081F
:100040001F0100081F0100081F0100081F01000810
:100050001F0100081F0100081F0100081F01000800
:100060001F0100081F0100081F0100081F010008F0
:1000700051100008611000081F0100081F0100084E
:1000800071100008811000081F0100081F010008FE
:100090001F0100081F0100081F0100081F010008C0
:1000A0001F010008413B00081F0100081F01000854
:1000B0001F0100081F010008513B00081F01000834
:1000C0001F0100081F0100081F0100081F01000890
:1000D0001F0100081F0100084D4400085D4400088E
:1000E0001F0100081F0100081F010008DFF810D0E1
:1000F00000F02EFC00480047354F0008AFF30080A9
:10010000B00C00200648804706480047FEE7FEE79F
:10011000FEE7FEE7FEE7FEE7FEE7FEE7FEE7FEE7B7
:100120003D3B0008ED000008202A04DB203A21FABC
:1001300002F00021704721FA02F3D040C2F1200200
:100140009140084319467047D2B201E000F8012BF4
:10015000491EFBD270470022F6E710B513460A4647
:1001600004461946FFF7F0FF204610BD034611F87C
:10017000012B00F8012B002AF9D118467047000026
:100180000FB400B58DB010A909900B9000914FF0FD
:10019000FF300A9000200C90054806900548079013
:1001A0006A4609A80F9900F0B5F90DB05DF814FB87
:1001B000310500084F0500082DE9FF5F1D464FF08F
:1001C000FF3BD5E9014691465F464FF00008A9691B
:1001D0007F1C01988847296A824688470028F6D103
:1001E000BAF1FF3F0CD024F4C064002E19DD600684
:1001F00014D5BAF12B0F09D0BAF12D0F0ED103E0AF
:10020000584604B0BDE8F09F44F48064A9697F1C9F
:1002100001988847761E8246002E02DDBAF1300F23
:1002200003D0B9F1000F26D032E0A969761E44F45C
:1002300000747F1C019888478246002E05DDBAF1C4
:10024000780F06D0BAF1580F03D0B9F1000F10D0D3
:100250001EE0B9F1000F02D0B9F1100F18D1A96951
:10026000761E24F400747F1C019888478246102073
:1002700002E0082000E00A20814609E008FB0908A6
:10028000A969761E44F400747F1C01988847824651
:10029000002E05DD4946504600F027F90028EDDA2A
:1002A000E96901988847A00502D46FF00100A8E72A
:1002B000E00725D1600613D5600502D5C8F100001E
:1002C00000E0404629680A1D2A600968220501D518
:1002D000087015E0220701D5088011E008600FE0E2
:1002E0002868011D29600068210502D580F800807A
:1002F00006E0210702D5A0F8008001E0C0F80080E8
:1003000038467EE7F0B480EA0102D40F4200B2EB37
:10031000410F02D20246084611464A0042D0C30DA0
:10032000DDB2C1F3C752AD1A202D35DAC1F3160183
:1003300041F4000204B15242C5F1200602FA06F16E
:100340002A411044B3EBD05F23D0C4B1012DA0EB00
:10035000C35009DCF0BC4FF0004202EAC352DBB2EA
:1003600000F5000000F00DB9400000F1807000EBD6
:10037000C350A0F1807040EAD170490009E04908FB
:1003800041EAC071A0EBC35000F50000400800EB4B
:10039000C350F0BC00F0ECB86142012202EB410115
:1003A000001BF6E7F0BC704781F00041AAE780F03F
:1003B0000040A7E780EA010210B502F000434000C8
:1003C00022D04A001FD0010E01EB1261C0F356008B
:1003D000C2F3560240F4000042F40002A0FB0220E7
:1003E00000047F39140400D0401C50EA124001D4AC
:1003F0004000491EC2B20C0604EBD010401C40085D
:10040000802A02D003E0002010BD20F00100002966
:1004100000DA0020184310BDC10F80EAE0700844E4
:10042000CA079623002100F0ACB800F0004220F08B
:100430000040C10DC0F3160040F400007F2901DA2E
:1004400000207047962903DCC1F19601C84001E005
:1004500096398840002AF4D04042704730B50B46A8
:10046000014600202022012409E021FA02F59D42E4
:1004700005D303FA02F5491B04FA02F52844151EB8
:10048000A2F10102F1DC30BD2DE9F05F054600204C
:1004900092469B4688460646814640241BE02846F5
:1004A000414647462246FFF73FFE53465A46C01A8A
:1004B000914110D311461846224600F05BFA2D1ADE
:1004C00067EB01084F4622460120002100F052FA56
:1004D00017EB00094E41201EA4F10104DFDC484661
:1004E00031462A464346BDE8F09F3A2800D23038CC
:1004F00020F02002412A01D3A2F13700884201D323
:100500004FF0FF307047000002681144137801601B
:1005100018467047D16004495161044911620021B5
:100520001161114600F04CBA09050008B70900082E
:10053000426842B1016811F8013B23B1521EC0E983
:100540000012184670470121C160881E704742683A
:100550005AB1C368016843B983688B4205D0491E0C
:10056000521CC0E90012002070474FF0FF30704766
:100570000029A8BF7047401C490008BF20F00100B7
:10058000704710B4B0FA80FC00FA0CF050EA010495
:1005900004BF10BC704749B1CCF1200421FA04F427
:1005A00011FA0CF118BF012121430843A3EB0C0100
:1005B000CB1D4FEA00614FEA102042BF002010BC63
:1005C000704700EBC35010440029A4BF10BC704713
:1005D000401C490008BF20F0010010BC70472DE905
:1005E000FE4F804681EA0300C00F0C46009021F0C8
:1005F000004123F00045B8EB0200A94105D2404676
:10060000214690461C460B46024623F0004010430C
:1006100047D0270DC7F30A00C3F30A510290401ACE
:10062000019040286BDAC3F3130040F4801B00985C
:10063000924620B10023D2EB030A63EB0B0B019827
:100640005946C0F14002504600F094F906460D4666
:1006500050465946019A00F09CF910EB08006141A0
:10066000002487EA115284EAE7731A4340D0009AC3
:1006700062B3019A012A4FEA075215DC001B61EBB5
:1006800002014FF0004202EA0752CDE90042001C8D
:1006900041F5801132462B4600F039FB03B0BDE82E
:1006A000F08F40462146F9E7001B61EB0201001C78
:1006B00041F5801300185B412018A2F5001747EBA5
:1006C000030140EAD570B6196D4111E06D084FEA9B
:1006D000360645EAC0754FEA0752001B61EB02017E
:1006E000001C41F5801149084FEA300000195141C2
:1006F00032462B4603B0BDE8F04F00F0F9BA00983F
:10070000012240000023D0EB020263EBE07300986B
:1007100021464FEAE074B8EB000061EB0401E9E721
:1007200083F000435BE781F0004158E72DE9FE4F7D
:1007300081EA030404F0004421F0004100944FF0EA
:10074000000B23F0004350EA01045ED052EA030498
:100750005BD0C3F30A54C1F30A552C44A4F2F3341A
:100760000194A0FB0254C1F3130141F48011C3F3BF
:10077000130343F4801301FB024400FB034E840A7D
:10078000970A44EA815447EA8357A4FB0768029515
:100790008D0A05FB07854FEA932C04FB0C542705B3
:1007A000029D4FEA065847EA1637B5EB08056EEB8F
:1007B000070C870E920E47EA811742EA8312A7FBC5
:1007C0000201B6EB0B0164EB00042B0D43EA0C3382
:1007D0005E1844EB1C50DA465146E7FB0201C5F3B4
:1007E00013044FEA0B3343EA14534FEA0432019CDB
:1007F00043EA0603A4F10C040294009CCDE900B482
:1008000000F085FA03B0BDE8F08F00200146F9E75B
:100810002DE9F04D81EA030404F0004B21F000457E
:1008200014464FF0000A23F0004150EA050220D0A0
:1008300054EA01021DD0C5F30A570246C5F313035B
:10084000C1F31300C1F30A5640F4801543F480133A
:10085000A7EB0608101BD64608F2FD3873EB05001F
:1008600002D308F1010801E092185B41B8F1000FD2
:1008700003DA00200146BDE8F08D00204FF480111E
:10088000064684460EE0171B73EB050705D3121BC3
:1008900063EB050306434CEA010C49084FEA3000BC
:1008A00092185B4150EA0107EDD152EA030012D0E1
:1008B00082EA040083EA0501084305D0101BAB411E
:1008C00006D20122002306E000224FF0004302E09E
:1008D0006FF0010253101AEB06004CEB085110EBBD
:1008E0000A0041EB0B01BDE8F04D00F001BAC1F385
:1008F0000A52C1F3130140F2FF3341F480119A42CE
:1009000002DA00200146704740F233439A42A2F2D5
:10091000334202DC5242FFF707BC00F02BB8000064
:1009200030B5041E71F1000404DB4FF00044404276
:1009300064EB0101141E73F1000405DB1C464FF04B
:100940000043524263EB0403994208BF904230BD1A
:10095000064C074D06E0E06840F0010394E807000C
:1009600098471034AC42F6D3FFF7C4FB7458000824
:1009700094580008202A04DB203A00FA02F10020F3
:1009800070479140C2F1200320FA03F319439040CD
:100990007047202A06DBCB17203A41FA02F043EADF
:1009A000E07306E041FA02F3D040C2F12002914028
:1009B000084319467047C0B24FF4F05100F0F6B941
:1009C0002DE9F34F8BB04FF0000801F10C000C46FD
:1009D0004FF0010B46460DF1080A019062690121B2
:1009E00001989047051E2DD0252D2CD0216A8847CF
:1009F000C0B16269012101989047216A88470028A7
:100A0000F7D1411E62690198904700E0761CA16908
:100A10000B988847216A88470028F7D1E1690B982D
:100A20008847DBE7A1690B9888470746A84201D1B0
:100A3000761CD3E7E1690B9888477F1C02D1B8F197
:100A4000000F6FD047E1002762693D4639460198A3
:100A500090472A2804D16269012101989047012515
:100A6000DFF888926269012101989047A0F1300176
:100A70000A290AD24F45E5DC07EB870100EB410765
:100A8000303FDFD445F01005ECE7E90601D46FF004
:100A900000476C280AD04C2814D0682815D06A2842
:100AA0000DD074281CD07A281AD01DE0626901216B
:100AB000019890476C2802D045F0040514E045F0F9
:100AC00002050DE045F020050AE062690121019868
:100AD0009047682802D045F0080505E045F4006518
:100AE0006269012101989047C4E9015765283DD00A
:100AF00019DC58287AD00CDC452837D004DC2528AE
:100B000026D0412831D131E046282FD047282CD19A
:100B10002CE05B2877D0612828D063287CD064281B
:100B200023D15AE0D1E06F2848D008DC66281DD0D8
:100B300067281BD0692821D06E2816D127E070289D
:100B400045D0732868D0752847D078280DD14DE05E
:100B5000A1690B988847054625283FF469AFE169EC
:100B60000B9888476D1C3FF46AAFB4E023466A4691
:100B70006FF001000B99AFF300809FE045F040005B
:100B80006060A80723464FF0000236D43EE0E80735
:100B90007FF447AF2068011D21600068290501D559
:100BA00006701BE7290701D5068017E7A90703D5BB
:100BB000F117C0E9006111E706600FE745F040005A
:100BC0006060A80723464FF0080216D41EE040F6E6
:100BD0000E0125EA0100606016E045F0400060600B
:100BE000A80723464FF00A0207D40FE045F0400063
:100BF0006060A80708D5234610226FF001000B990A
:100C0000AFF300805AE007E0234610226FF00100A6
:100C10000B99FFF7D1FA51E04FF000094F464B46D0
:100C2000632802D05B2807D041E02079C00601D4B8
:100C30000120A06001273AE06269012101989047F4
:100C40005E2805D14FF00109626949460198904735
:100C5000216939B900210A46534643F82120491C2D
:100C60000829FADBB0B3216969B9C11700EBD16279
:100C700053110AEB830122F01F02821A01200B6834
:100C8000904003430B6062690121019890475D2801
:100C9000E8D1B9F1000F09D00020514651F82020C9
:100CA000D24341F82020401C0828F7DB02AB224643
:100CB00000976FF001000B99AFF3008000280CDA69
:100CC000401C08D1BBF1000F05D04FF0FF300DB034
:100CD000BDE8F08FFFE74046F9E7E90701D108F1E9
:100CE000010806444FF0000B78E60000CCCCCC0C99
:100CF00010B5141E73F1000408DA401C41F1000124
:100D000092185B411A4301D120F0010010BD2DE97A
:100D1000F04D92469B4611B1B1FA81F202E0B0FA71
:100D200080F220329046FFF725FE04460F4640EA47
:100D30000A0041EA0B0153465A46084313D01146B4
:100D400053EA010019D0C8F140025046FFF7ECF910
:100D500005460E46504659464246FFF70BFE0843ED
:100D600005D0012004E020463946BDE8F08D002082
:100D7000054346EAE0762C4337430A986305E40AC4
:100D8000A0EB08000022FD0A44EA47540A3002D5CD
:100D900000200146E9E7010510196941DDE9084530
:100DA00000196941BDE8F04DA2E700007F2801D994
:100DB000002208E0064A02EB5002C007127800D178
:100DC000120902F00F020120904008407047000015
:100DD0003258000810B502F041FA00F071F90C48E1
:100DE00001F04AFA0B4801F047FA0B4801F044FAC7
:100DF00003F096F902F044FC02F022FC102307A253
:100E00000021042002F012FD08A003F031FB10BD08
:100E1000FC00002044010020B40000204361722047
:100E2000706172616D6574657200000044454255E1
:100E3000475F7072696E74665B4150505D3AE7B30C
:100E4000BBE7BB9FE5889DE5A78BE58C96E5AE8C5F
:100E5000E688907E0D0A000008B52A48007801282F
:100E600034D12948294B2A4A2AA100902C48FFF75F
:100E700087F925480368254802682548016829A0A4
:100E800003F0F6FA0A2000F027FB40212448FFF780
:100E900062F91E4803681E482FA10268324803F019
:100EA0005FFB194831A10268344803F059FB08235D
:100EB0002D4A0221002002F0B9FC08232F4A032109
:100EC000002002F0B3FC00200E4908702C48027884
:100ED0002CA1314803F044FB30480368304831A16D
:100EE0000268354803F03CFB08232B4A042100200C
:100EF00002F09CFC0823304A0521002002F096FCF9
:100F000008BD000041000020500000204C000020DF
:100F10004800002025642C25642C25640000000076
:100F20000000002044454255475F7072696E746648
:100F30005B4150505D3A4B3231302D3E20583A25BE
:100F40006420593A25642044697374616E63653A7C
:100F500025640D0A00000000783A253034642079B9
:100F60003A253034640000002C0300206469737457
:100F7000616E63653A253034640000006C03002024
:100F80004000002070726F626C656D5F666C616717
:100F90003A25303264000000AC03002060000020DD
:100FA0005C000020732D313A25303464732D323AC1
:100FB0002530346400000000EC03002000BFFEE791
:100FC0002DE9F041194801681948006802F058FC01
:100FD0000646184801681648006802F0CFFC07462C
:100FE00034463D46B4F57A7F02DB4FF47A740EE066
:100FF00014F57A7F01DC104C09E0B5F57A7F02DB4D
:101000004FF47A7503E015F57A7F00DC0A4D084845
:1010100001680AA003F02CFA012000F05DFA2946CD
:10102000204603F09FFFBDE8F08100005C00002037
:10103000700000206000002018FCFFFF5461726700
:1010400065745F53706565643D25640D0A0000009A
:1010500010B5024800F0F0F810BD0000E8020020D2
:1010600010B5024800F0E8F810BD0000A40200200E
:1010700010B5024800F0E0F810BD00001C0200208E
:1010800010B5024800F0D8F810BD00006002002042
:1010900030B590F840500124AC40C56B6C600468DA
:1010A00063604468102C04D10468A2600468E160A5
:1010B00003E00468A1600468E26030BD704700008E
:1010C00010B53C21034801F069FA3C21024801F0C7
:1010D00065FA10BDFC00002044010020012804D165
:1010E0000021054A1268516205E0022803D100215F
:1010F000024A126851627047FC000020440100203F
:101100000146012904D107480068406A00B27047CF
:10111000022904D104480068406A00B2F7E70020C1
:10112000F5E70000FC0000204401002072B600BF7B
:10113000FEE70146002291F82100022808D0042091
:10114000886300BF002081F8200000BF01207047A5
:101150000868006820F00E000B68186008680068D6
:1011600020F001000B68186091F840300120984091
:10117000CB6B5860012081F8210000BF002081F86E
:10118000200000BF1046E2E770B50446002594F841
:101190002100022803D00420A063012548E0206834
:1011A000006820F00E00216808602068006820F0C8
:1011B0000100216808601F492068884201D1012090
:1011C00026E01C4914312068884201D110201FE01C
:1011D000184928312068884201D1801518E0154946
:1011E0003C312068884201D1801411E0114950310E
:1011F0002068884202D14FF4803009E00D49643103
:101200002068884202D14FF4801001E04FF08070D6
:10121000084908394860012084F8210000BF0020F7
:1012200084F8200000BF606B10B12046616B8847D6
:10123000284670BD0800024070B50446E06B0568A2
:101240002068066894F84010042088402840002850
:1012500046D006F00400002842D02068006800F064
:10126000200028B92068006820F004002168086088
:1012700057492068884201D1042027E0544914319D
:101280002068884201D1402020E05149283120685F
:10129000884201D1001519E04D493C31206888424F
:1012A00002D14FF4804011E0494950312068884212
:1012B00002D14FF4802009E045496431206888421A
:1012C00002D14FF4800001E04FF0806040490839BE
:1012D0004860E06A00287AD02046E16A884776E0D4
:1012E00094F84010022088402840A0B306F0020085
:1012F00088B32068006800F0200040B920680068CA
:1013000020F00A0021680860012084F8210030499B
:101310002068884201D1022028E02D49143120683C
:10132000884201D1202021E02949283120688842C3
:1013300001D140151AE026493C312068884202D18B
:101340004FF4005012E0224950312068884203D106
:101350004FF400300AE017E01D49643120688842EC
:1013600002D14FF4001001E04FF000701849083925
:10137000486000BF002084F8200000BFA06A30B39E
:101380002046A16A884722E094F84010082088404F
:101390002840E0B106F00800C8B12068006820F0DD
:1013A0000E002168086094F8401001208840E16B2D
:1013B00048600120A06384F8210000BF002084F869
:1013C000200000BF206B10B12046216B884770BD04
:1013D000080002400146002209B901207047164B5F
:1013E0000868C01A1423B0FBF3F0800008641248A8
:1013F0000838C863022081F821000868026843F6B3
:10140000F0708243D1E901031843CB6818430B699C
:1014100018434B6918438B691843CB69184302433F
:101420000868026000208863012081F82100002004
:1014300081F8200000BFD1E7080002402DE9F0410B
:1014400004460D4616461F464FF0000800BF94F8AC
:101450002000012802D10220BDE8F081012084F89B
:10146000200000BF94F8210001282CD1022084F82C
:1014700021000020A0632068006820F0010021689E
:1014800008603B46324629462046FFF701FEE06AE7
:1014900030B12068006840F00E00216808600BE061
:1014A0002068006820F00400216808602068006857
:1014B00040F00A00216808602068006840F00100E0
:1014C0002168086006E000BF002084F8200000BF0B
:1014D0004FF002084046BFE770B5044600F0B0F98F
:1014E00006462546681C10B104480078054400BF34
:1014F00000F0A6F9801BA842FAD370BDAC00002012
:101500002DE9F8470346002294466EE14FF00108AA
:1015100008FA02F4D1F8008008EA0400A0427DD164
:10152000DFF8DCA2D1F80480A8EB0A09D0453AD054
:1015300014DCB8F1030F50D009DCB8F1000F31D042
:10154000B8F1010F1CD0B8F1020F49D120E0B8F179
:10155000110F18D0B8F1120F42D11EE0B9F5881F53
:1015600025D006DCB9F5803F20D0B9F5801F37D1F2
:101570001AE0B9F5001F18D0B9F5041F30D117E0F3
:10158000D1F80CC02DE0D1F80C8008F1040C28E053
:10159000D1F80C8008F1080C23E0D1F80C8008F198
:1015A0000C0C1EE000BF00BF00BF00BF00BF00BFAB
:1015B000D1F80880B8F1000F02D14FF0040C0BE015
:1015C000D1F80880B8F1010F03D14FF0080C1C616D
:1015D00002E04FF0080C5C6103E04FF0000C00E00B
:1015E00000BF00BFFF2801D8984601E003F10408BE
:1015F0004646FF2802D84FEA820803E0A2F1080815
:101600004FEA88084746D6F800804FF00F0909FADC
:1016100007F928EA09080CFA07F900E088E048EA27
:101620000908C6F80080D1F8048008F08058B8F1A5
:10163000805F7DD100BFDFF8CC81D8F8188048F0FA
:101640000108DFF8C091C9F81880C846D8F818809A
:1016500008F00108CDF8008000BF00BF4FEAB9389C
:101660004FEA920958F829504FEA82784FEA1879E0
:101670004FF00F0808FA09F825EA0805DFF8888115
:10168000434502D14FF0000816E0DFF88081434562
:1016900002D14FF001080FE0DFF87481434502D119
:1016A0004FF0020808E0DFF86C81434502D14FF0AB
:1016B000030801E04FF004084FEA82794FEA1979F4
:1016C00008FA09F848EA0505DFF84C814FEA920963
:1016D00048F82950D1F8048008F48018B8F5801F24
:1016E0000AD1DFF83881D8F8008048EA0008DFF82E
:1016F0002C91C9F8008009E0DFF82081D8F800803B
:1017000028EA0008DFF81491C9F80080D1F80480B5
:1017100008F40018B8F5001F10D1DFF8008108F1B7
:101720000408D8F8008048EA0008DFF8F09000E0EC
:101730005AE009F10409C9F800800DE0DFF8DC8007
:1017400008F10408D8F8008028EA0008DFF8CC90F7
:1017500009F10409C9F80080D1F8048008F40038C0
:10176000B8F5003F0ED1DFF8B480A8F10408D8F82E
:10177000008048EA0008DFF8A490A9F10409C9F83C
:1017800000800DE0DFF89480A8F10408D8F800800C
:1017900028EA0008DFF88490A9F10409C9F800805C
:1017A000D1F8048008F48038B8F5803F0ED1DFF816
:1017B0006C80A8F10808D8F8008048EA0008DFF833
:1017C0005C90A9F10809C9F800800DE0DFF84C80B1
:1017D000A8F10808D8F8008028EA0008DFF83C9053
:1017E000A9F10809C9F80080521CD1F8008028FA34
:1017F00002F8B8F1000F7FF489AEBDE8F887000069
:10180000000011100010024000080140000C0140CF
:10181000001001400014014008000140080401408C
:1018200010B5C26821EA020302EA010443EA044354
:10183000036110BD0AB1016101E00B04036170474F
:101840000148006870470000A400002003480068B9
:10185000034909780844014908607047A400002042
:10186000AC00002010B50848006840F010000649A0
:101870000860032000F0A8F8002000F007F800F04E
:101880002BF8002010BD00000020024070B5044677
:101890000E4800784FF47A71B1FBF0F00C490968FA
:1018A000B1FBF0F5284600F0F9FB08B1012070BD4E
:1018B000102C07D200222146501E00F047F80548A0
:1018C000046001E00120F2E70020F0E7AC00002016
:1018D000B0000020A800002008B500BF11488069B2
:1018E00040F001000F4988610846806900F001005E
:1018F000009000BF00BF00BF0846C06940F08050A4
:10190000C8610846C06900F08050009000BF00BF69
:1019100000BF0549486820F0E06040F00070486072
:1019200000BF08BD0010024000000140014608460B
:10193000002809DB00F01F0301229A4043099B00A5
:1019400003F1E023C3F8002100BF70472DE9F05FE9
:1019500080460D461646002702F030FE07463946FF
:101960002A46334601F00700C0F1070ABAF1040F16
:1019700002D94FF0040A01E0C0F1070AD14600F194
:10198000040ABAF1070F02D24FF0000A01E0A0F1F9
:10199000030AD4464FF0010A0AFA09FAAAF1010A29
:1019A0000AEA020A0AFA0CFA4FF0010B0BFA0CFBD6
:1019B000ABF1010B0BEA030B4AEA0B04214640464C
:1019C00002F004FEBDE8F09F00BF00F00702064BE6
:1019D00019684FF6FF031940044B0B4343EA0221F9
:1019E000014B196000BF70470CED00E00000FA05E4
:1019F00070B504460D460CB9012070BD5A48006808
:101A000000F00700A8420ED25748006820F00700F7
:101A10002843554908600846006800F00700A842BE
:101A200001D00120E9E7207800F0020002281DD152
:101A3000207800F00400042805D14C48406840F4A8
:101A4000E0604A494860207800F00800082805D185
:101A50004648406840F46050444948604348406804
:101A600020F0F000A168084340494860207800F069
:101A7000010078B36068012806D13C48006800F492
:101A8000003090B90120B8E76068022806D13748D5
:101A9000006800F0007040B90120AEE733480068EC
:101AA00000F0020008B90120A7E73048406820F0A4
:101AB0000300616808432D494860FFF7C1FE0646F0
:101AC00009E0FFF7BDFE801B41F28831884202D950
:101AD000032092E707E02548406800F00C006168A9
:101AE000B0EB810FEDD12048006800F00700A8425C
:101AF0000ED91D48006820F0070028431A490860E5
:101B00000846006800F00700A84201D0012074E7F1
:101B1000207800F00400042807D11448406820F41D
:101B2000E060E168084311494860207800F008004F
:101B3000082808D10D48406820F46050216940EA27
:101B4000C1000A49486000F03FF808494968C1F3FC
:101B50000311074A515CC8400649086006480068FE
:101B6000FFF794FE002048E70020024000100240EA
:101B70001A580008B0000020A800002001480068A2
:101B800070470000B000002000B5FFF7F7FF0449E0
:101B90004968C1F30221034A515CC84000BD0000FE
:101BA000001002402A58000800B5FFF7E7FF04497B
:101BB0004968C1F3C221034A515CC84000BD00001E
:101BC000001002402A58000870B5002100220024AD
:101BD00000230020134D696801F00C05F5B1042DB8
:101BE00002D0082D19D101E00F4819E00F4DC1F3C3
:101BF0008346AB5D01F4803555B10A4D6D68C5F380
:101C000040450B4E725D084D5D43B5FBF2F402E0BA
:101C1000084D03FB05F4204602E000BF024800BF68
:101C200000BF70BD0010024000127A000858000882
:101C30001858000800093D00F8B504460CB9012009
:101C4000F8BD207800F00100002878D0F8484068FE
:101C500000F00C0004280CD0F548406800F00C009F
:101C6000082811D1F248406800F48030B0F5803F78
:101C70000AD1EF48006800F4003000285FD06068A7
:101C800000285CD10120DBE700BF6068B0F5803F31
:101C900006D1E748006840F48030E549086028E054
:101CA000606858B9E248006820F48030E049086074
:101CB0000846006820F4802008601AE06068B0F5EB
:101CC000A02F0BD1DA48006840F48020D849086082
:101CD0000846006840F4803008600AE0D448006894
:101CE00020F48030D24908600846006820F4802043
:101CF000086000BF606888B1FFF7A2FD054606E0F6
:101D0000FFF79EFD401B642801D9032098E7C848CF
:101D1000006800F400300028F2D010E0FFF790FDDA
:101D2000054606E0FFF78CFD401B642801D903201F
:101D300086E7BF48006800F400300028F2D1207820
:101D400000F00200022857D1B948406800F00C00AA
:101D500050B1B748406800F00C00082818D1B448CA
:101D6000406800F4803098B9B148006800F0020083
:101D700020B12069012801D0012061E7AC4800684A
:101D800020F0F800616940EAC100A949086033E029
:101D90002069E8B10120A7490860FFF751FD054619
:101DA00006E0FFF74DFD401B022801D9032047E75D
:101DB0009F48006800F002000028F2D09C480068AC
:101DC00020F0F800616940EAC1009949086013E019
:101DD000002098490860FFF733FD054606E0FFF74D
:101DE0002FFD401B022801D9032029E790480068F5
:101DF00000F002000028F2D1207800F00800082846
:101E00002DD1A069B8B101208B490860FFF718FDFA
:101E1000054606E0FFF714FD401B022801D9032008
:101E20000EE78348406A00F002000028F2D001204B
:101E300001F024FE13E000207F490860FFF700FD59
:101E4000054606E0FFF7FCFC401B022801D90320F1
:101E5000F6E67748406A00F002000028F2D12078C8
:101E600000F00400042873D100277148C06900F015
:101E7000805070B900BF6E48C06940F080506C4916
:101E8000C8610846C06900F08050009000BF00BFE4
:101E900001276A48006800F48070B0B9674800689C
:101EA00040F4807065490860FFF7CAFC054606E00B
:101EB000FFF7C6FC401B642801D90320C0E65F4839
:101EC000006800F480700028F2D000BFE0680128AC
:101ED00006D15748006A40F001005549086227E0E2
:101EE000E06858B95248006A20F001005049086281
:101EF0000846006A20F00400086219E0E06805283E
:101F00000BD14B48006A40F004004949086208467A
:101F1000006A40F0010008620AE04548006A20F0CB
:101F20000100434908620846006A20F00400086284
:101F300000BFE068A0B1FFF783FC054609E0FFF7AA
:101F40007FFC401B41F28831884202D9032077E6AA
:101F500022E03748006A00F002000028EFD012E0CB
:101F6000FFF76EFC054608E0FFF76AFC401B41F2F4
:101F70008831884201D9032062E62D48006A00F0CA
:101F800002000028F0D1012F05D12948C06920F0B6
:101F900080502749C86100BFE069C8B32448406841
:101FA00000F00C00082860D0E069022848D1002029
:101FB00020490866FFF744FC054606E0FFF740FCB1
:101FC000401B022801D903203AE61948006800F0B6
:101FD00000700028F2D1206AB0F5803F07D1144884
:101FE000406820F40030A168084311494860D4E9F2
:101FF000080108430E49496821F4741108430C494B
:10200000486001200B490866FFF71AFC054607E007
:102010003DE0FFF715FC401B022801D903200FE625
:102020000348006800F000700028F2D02FE00000A4
:102030000010024000004242800442420070004012
:10204000002014490866FFF7FBFB054606E0FFF792
:10205000F7FB401B022801D90320F1E50E48006878
:1020600000F000700028F2D111E0E069012800D1F1
:10207000E6E50948466806F48031206A814204D1C9
:1020800006F47011606A814201D00120D8E5002079
:10209000D6E50000000042420010024070B5044640
:1020A0002546681EB0F1807F01D301200FE0681E35
:1020B0004FF0E02148610F214FF0FF3002F086FA27
:1020C00000204FF0E021886107200861002070BDEA
:1020D0007047704710B50346002200BF93F83C00DC
:1020E000012801D1022010BD012083F83C0000BF6F
:1020F00022F0FF00CC6840EA040222F440708C68B1
:1021000040EA040222F480604C6840EA040222F4AF
:1021100000600C6840EA040222F480500C6940EA36
:10212000040222F400504C6940EA040222F4804088
:10213000CC6940EA04021868426400BF002083F8BA
:102140003C0000BF00BFCEE730B502460B4600BFE3
:1021500092F83C00012801D1022030BD012082F814
:102160003C0000BF022082F83D00106844681068FF
:10217000816824F070041868044310684460104DAE
:102180001068A8420BD01068B0F1804F07D00D4DF9
:102190001068A84203D00C4D1068A84205D121F068
:1021A00080015868014310688160012082F83D0079
:1021B00000BF002082F83C0000BF00BFCDE7000058
:1021C000002C0140000400400008004010B5044607
:1021D0000CB9012010BD94F83D0028B9002084F806
:1021E0003C00204600F026F8022084F83D00211D26
:1021F000206801F0B5FC012084F8460000BF84F897
:102200003E0001213F20015540200155412001554C
:1022100000BF00BF012084F8420043200155442044
:1022200001554520015500BF012084F83D000020E4
:10223000D0E7000038B504460D492068884215D122
:1022400000BF0C48806940F400600A498861084674
:10225000806900F40060009000BF00BF00220121EF
:102260001920FFF773FB1920FFF760FB38BD000052
:10227000002C014000100240014691F83D00012869
:1022800001D001207047022081F83D000868C06835
:1022900040F001000B68D860124B086898420BD0E0
:1022A0000868B0F1804F07D00F4B0868984203D000
:1022B0000E4B086898420CD10868806800F007024D
:1022C000062A0CD00868006840F001000B6818600E
:1022D00005E00868006840F001000B681860002005
:1022E000D0E70000002C014000040040000800403E
:1022F0002DE9F04104460D46002700BF94F83C004C
:10230000012802D10220BDE8F081012084F83C00C0
:1023100000BF022084F83D002068866826F077061A
:1023200026F47F46206886602868502833D00CDC6D
:10233000202850D004DC00284BD0102851D149E08F
:10234000302849D040284CD139E060282DD0702861
:1023500007D0B0F5805F03D0B0F5005F41D10DE04C
:1023600041E0D5E902136A68206801F044FC206866
:10237000866846F077062068866034E0D5E9021367
:102380006A68206801F037FC2068806840F480406B
:102390002168886027E0EA686968206801F0FCFC31
:1023A0005021206801F032FC1DE0EA68696820686D
:1023B00001F005FD6021206801F028FC13E0EA68C7
:1023C0006968206801F0E8FC4021206801F01EFCEB
:1023D00009E000BF00BF00BF2968206801F016FCBB
:1023E00001E0012700BF00BF012084F83D0000BFCD
:1023F000002084F83C0000BF384684E72DE9F04116
:1024000004460D4614B90120BDE8F08194F83D0062
:1024100028B9002084F83C00204600F051F8022042
:1024200084F83D002068806844F2070188432168F1
:102430008860211D206801F093FB2068D0F8088097
:10244000206886692068076A286840EA080840F220
:1024500003308643A969A86840EA0120064340F694
:102460000C4086434FF2F0008643E969E86840EA91
:102470000120064328690001296A40EA0130064329
:1024800027F022076969686840EA0110074320685D
:10249000C0F808802068866120680762012084F8FF
:1024A000460084F83E0001213F200155012084F8B8
:1024B000420043200155012084F83D000020A3E79D
:1024C00010B586B004460020029003900490059059
:1024D0002068B0F1804F25D100BF2C48C06940F082
:1024E00001002A49C8610846C06900F00100019056
:1024F00000BF00BF00BF0846806940F0040088614B
:102500000846806900F00400019000BF00BF03206E
:102510000290002003900120049002A91C48FEF7BD
:10252000EFFF30E01B49206888422CD100BF1748DC
:10253000C06940F004001549C8610846C06900F050
:102540000400019000BF00BF00BF0846806940F052
:10255000080088610846806900F00800019000BF0B
:1025600000BFC0200290002003900120049002A927
:102570000948FEF7C5FF002211461E20FFF7E6F9C5
:102580001E20FFF7D3F906B010BD00000010024076
:102590000008014000080040000C01402DE9F04314
:1025A00004460D4694F83E603F20075D94F8428053
:1025B000432010F804906DB9012E02D1B8F1010F3B
:1025C00002D00120BDE8F083022084F83E0084F8A8
:1025D000420025E0042D0CD1012F02D1B9F1010FE9
:1025E00001D00120EEE702213F2001554320015593
:1025F00016E0012E07D1012F05D1B8F1010F02D14C
:10260000B9F1010F01D00120DCE7022084F83E007F
:1026100002213F200155022084F842004320015549
:1026200015B1042D0CD105E001220021206801F034
:10263000D1FA10E001220421206801F0CBFA0AE06F
:1026400001220021206801F0C5FA0122042120683E
:1026500001F0C0FA00BF00BF2068006840F0010030
:10266000216808600020ADE7704710B50446206877
:102670000069C0F34000D8B12068C068C0F34000D2
:10268000B0B16FF002002168086101202077206856
:10269000806900F0030018B12046FFF7E5FF05E070
:1026A000204600F0D9F8204600F08DF90020207770
:1026B00020680069C0F38000D8B12068C068C0F30A
:1026C0008000B0B16FF0040021680861022020771B
:1026D0002068806900F4407018B12046FFF7C4FFFD
:1026E00005E0204600F0B8F8204600F06CF9002024
:1026F000207720680069C0F3C000D8B12068C068A6
:10270000C0F3C000B0B16FF0080021680861042078
:1027100020772068C06900F0030018B12046FFF759
:10272000A3FF05E0204600F097F8204600F04BF9A3
:102730000020207720680069C0F30010D8B120681D
:10274000C068C0F30010B0B16FF0100021680861DC
:10275000082020772068C06900F4407018B1204636
:10276000FFF782FF05E0204600F076F8204600F0F3
:102770002AF9002020772068006900F0010058B194
:102780002068C06800F0010030B16FF001002168DE
:102790000861204600F082F920680069C0F3C0108B
:1027A00058B12068C068C0F3C01030B16FF080002D
:1027B000216808612046FFF78BFC20680069C0F3A0
:1027C000801058B12068C068C0F3801030B16FF03D
:1027D000400021680861204600F080F92068006907
:1027E000C0F3401058B12068C068C0F3401030B149
:1027F0006FF02000216808612046FFF76AFC10BDD9
:1028000010B586B004460020029003900490059015
:102810000E492068884217D100BF0D48806940F0FA
:1028200004000B4988610846806900F004000190AB
:1028300000BF00BF4FF4407002900220039005904B
:1028400002A90448FEF75CFE06B010BD002C014052
:10285000001002400008014070472DE9F041044695
:102860000D461646002700BF94F83C00012802D10F
:102870000220BDE8F081012084F83C0000BF36B1A1
:10288000042E1BD0082E31D00C2E5ED145E02946F7
:10289000206801F0C5F92068806940F008002168CF
:1028A00088612068806920F00400216888612068C0
:1028B0008069296908432168886148E029462068C1
:1028C00001F0DEF92068806940F4006021688861C9
:1028D0002068806920F480602168886120688069B0
:1028E000296940EA01202168886130E02946206892
:1028F00001F0FAF92068C06940F008002168C86159
:102900002068C06920F004002168C8612068C0699F
:10291000296908432168C86119E02946206801F047
:1029200017FA2068C06940F400602168C861206817
:10293000C06920F480602168C8612068C069296985
:1029400040EA01202168C86101E0012700BF00BF03
:1029500000BF002084F83C0000BF384689E710B56E
:1029600004460CB9012010BD94F83D0028B90020A0
:1029700084F83C00204600F025F8022084F83D0051
:10298000211D206801F0ECF8012084F8460000BF0A
:1029900084F83E0001213F2001554020015541208F
:1029A000015500BF00BF012084F8420043200155BB
:1029B000442001554520015500BF012084F83D0009
:1029C0000020D0E77047704770B504460D4615B932
:1029D00094F83E000BE0042D02D13F20005D06E09C
:1029E000082D02D14020005D01E04120005D01285A
:1029F00001D0012070BD1DB9022084F83E000EE018
:102A0000042D03D102213F20015508E0082D03D1F8
:102A100002214020015502E00221412001550122FE
:102A20002946206801F0D6F819492068884201D16A
:102A3000012000E0002028B12068406C40F40040F4
:102A4000216848641249206888420BD02068B0F1A0
:102A5000804F07D00F492068884203D00E49206874
:102A600088420CD12068806800F00706062E0CD042
:102A70002068006840F001002168086005E02068D7
:102A8000006840F00100216808600020B2E7000003
:102A9000002C0140000400400008004010B504462E
:102AA0000D480088401C0C49088008460088052114
:102AB00090FBF1F201FB120018B902F001FAFEF7E7
:102AC0007FFA05480088B0F5FA7F04D100F0A8FB32
:102AD00000200149088010BD560000207047F8B55D
:102AE00004460E46174694F8420020282ED106B11F
:102AF0000FB90120F8BD01202063002060633A4631
:102B00003146204601F00EFC0546EDB9206B012848
:102B100019D100BF00200090206800680090206854
:102B20004068009000BF00BF00BF00BF21680C31AB
:102B300051E8001F41F0100021680C3141E800020B
:102B4000002AF3D100E001252846D3E70220D1E78F
:102B500070B504460D460A492068884204D12946CA
:102B6000204601F09FF909E006492068884204D117
:102B70002946204601F07EF900E000BF70BD00004C
:102B8000003801400044004010B504460849206860
:102B9000884203D1204601F049F908E00549206840
:102BA000884203D1204601F01EF900E000BF10BDAD
:102BB00000380140004400402DE9F84F04462068E9
:102BC00005682068C668206847694FF00009CA4652
:102BD00005F00F09B9F1000F0AD105F0200038B156
:102BE00006F0200020B1204601F0A0FABDE8F88FE1
:102BF000B9F1000F7BD007F0010018B906F490700E
:102C0000002874D005F0010030B106F4807018B1CE
:102C1000606C40F00100606405F0040030B107F022
:102C2000010018B1606C40F00200606405F0020021
:102C300030B107F0010018B1606C40F0040060642E
:102C400005F0080048B106F0200010B907F00100B7
:102C500018B1606C40F008006064606C002845D0DA
:102C600005F0200028B106F0200010B1204601F048
:102C70005DFA20684069C0F3801A606C00F00800BB
:102C800010B9BAF1000F2CD0204601F0F0F92068FD
:102C9000406900F0400000B300BF00BF216814315C
:102CA00051E8001F21F040002168143141E8000282
:102CB000002AF3D100BFE06B50B17748E16B486365
:102CC000E06BFEF761FA88B1E06B416B88470DE07D
:102CD0002046FFF759FF09E009E02046FFF754FFBF
:102CE00004E02046FFF750FF002060647EE7206B81
:102CF000012877D105F01000002873D006F01000ED
:102D00000028FAD000BF00200090206800680090E2
:102D100020684068009000BF00BF2068406900F054
:102D2000400000285FD0E06B006840681FFA80F820
:102D3000B8F1000F55D0A08D404552DDA4F82E808B
:102D4000E06B8069202843D000BF00BF21680C31B0
:102D500051E8001F21F4807021680C3141E8000225
:102D6000002AF3D100BF00BF00BF2168143151E831
:102D7000001F21F001002168143141E80002002AFF
:102D8000F3D100BF00BF00BF2168143151E8001F1C
:102D900021F040002168143141E80002002AF3D1FB
:102DA00000BF202084F842000020206300BF00BF45
:102DB00021680C3151E8001F21F0100021680C310E
:102DC00041E80002002AF3D100BFE06BFEF7B1F941
:102DD00002206063A08DE28D801A81B22046FFF749
:102DE000B7FE03E742E0A08DE18D401A1FFA80F89C
:102DF000E08DD0B3B8F1000F37D000BF00BF21681D
:102E00000C3151E8001F21F4907021680C3141E829
:102E10000002002AF3D100BF00BF00BF21681431B7
:102E200051E8001F21F001002168143141E800023F
:102E3000002AF3D100BF202084F842000020206344
:102E400000BF00BF21680C3151E8001F21F01000C5
:102E500021680C3141E80002002AF3D100BF0220B2
:102E6000606341462046FFF773FEBFE605F0800031
:102E700030B106F0800018B1204601F0B7FAB5E68F
:102E800005F0400030B106F0400018B1204601F0D6
:102E900024F9ABE600BFA9E6CD3E000810B5044614
:102EA0000CB9012010BDA06900B100E000BF94F88A
:102EB000410028B9002084F84000204600F02AF89C
:102EC000242084F841002068C06820F40050216864
:102ED000C860204601F0A8F92068006920F49040FD
:102EE000216808612068406920F02A002168486153
:102EF0002068C06840F400502168C8600020606409
:102F0000202084F8410084F842000020606300BF64
:102F1000C8E7000010B586B0044600200290039078
:102F2000049005906F492068884269D100BF6E48BF
:102F3000C06940F400306C49C8610846C06900F4BB
:102F40000030019000BF00BF00BF0846806940F01C
:102F5000040088610846806900F00400019000BF09
:102F600000BF04200290022003900320059002A9D4
:102F70005E48FEF7C5FA08200290002003900490F6
:102F800002A95A48FEF7BCFA59485A49086000207D
:102F900048600021574881608021C16000210161A3
:102FA00041618161C161FEF715FA08B1FEF7BEF813
:102FB00000BF5048E063446200BF4D4814304E49A2
:102FC00008601020486000214B4881608021C1606A
:102FD0000021016141618161C161FEF7FBF908B126
:102FE000FEF7A4F800BF4448A063446200BF00227B
:102FF00001212620FEF7AAFC2620FEF797FC6EE0B2
:103000003E49206888426AD100BF3748C06940F411
:1030100080203549C8610846C06900F480200190CD
:1030200000BF00BF00BF0846806940F0080088610B
:103030000846806900F00800019000BF00BF081535
:103040000290022003900320059002A92C48FEF76D
:1030500057FA4FF40060029000200390049002A9F8
:103060002748FEF74DFA22483C38264908600020E0
:1030700048600021234881608021C16000210161F6
:1030800041618161C161FEF7A5F908B1FEF74EF813
:1030900000BF1C48E063446200BF154850381A491D
:1030A0000860102048600021174881608021C160BD
:1030B0000021016141618161C161FEF78BF908B1B5
:1030C000FEF734F800BF1048A063446200BF00223E
:1030D00011462720FEF73AFC2720FEF727FC06B012
:1030E00010BD0000004400400010024000080140F4
:1030F0006C0002401C0200206002002000480040DA
:10310000000C0140A4020020E80200207047704734
:10311000F7B50446154694F84100202836D10198A9
:1031200000B10DB90120FEBD01982062A584E5849F
:1031300000206064212084F841001548A16B88625A
:103140001448A16BC8621448A16B08630020A16BEE
:10315000486301AE23681A1D31682B46A06BFEF749
:103160006DF96FF040002168086000BF00BF216862
:10317000143151E8001F41F080002168143141E80A
:103180000002002AF3D100BF0020CCE70220CAE7EA
:103190000940000861400008E13E000870477047A0
:1031A00000BFFEE710B5012211020A48FEF742FBFC
:1031B000012251020748FEF73DFB00224FF4007147
:1031C0000448FEF737FB00224FF480710148FEF7F8
:1031D00031FB10BD000C014010B50122110207485F
:1031E000FEF728FB00224FF400710448FEF722FB93
:1031F000012251020148FEF71DFB10BD000C0140E9
:1032000010B5012211020548FEF714FB00224FF40D
:1032100080710248FEF70EFB10BD0000000C01405B
:1032200010B54FF400510248FEF7FAFA10BD000045
:103230000010014010B5012291030248FEF7FAFA8E
:1032400010BD00000010014010B500224FF4804175
:103250000148FEF7EFFA10BD0010014010B5002143
:103260000748FFF7B1FB04210548FFF7ADFB00203D
:1032700003490968486302490968886310BD000072
:10328000B400002008B500BF1648406940F00100B6
:10329000144948610846406900F00100009000BFF1
:1032A00000BF002211460C20FEF750FB0C20FEF759
:1032B0003DFB002211460D20FEF748FB0D20FEF7D6
:1032C00035FB002211461020FEF740FB1020FEF7D0
:1032D0002DFB002211461120FEF738FB1120FEF7CE
:1032E00025FB08BD0010024000B585B0002001900C
:1032F00002900390049000BF3748806940F01000AE
:10330000354988610846806900F01000009000BFD0
:1033100000BF00BF0846806940F020008861084671
:10332000806900F02000009000BF00BF00BF084689
:10333000806940F0040088610846806900F004005C
:10334000009000BF00BF00BF0846806940F0080041
:1033500088610846806900F00800009000BF00BF47
:1033600000224FF460411D48FEF764FA00224FF43A
:1033700040711B48FEF75EFA4FF460400190012057
:103380000290002003900220049001A91348FEF748
:10339000B7F8F0200190134802900220039001A991
:1033A0001148FEF7ADF84FF2010001900D48029070
:1033B0000220039001A90A48FEF7A2F84FF44070DA
:1033C00001900120029002200390049001A904487A
:1033D000FEF796F805B000BD001002400010014055
:1033E000000C0140000011100008014000B595B02C
:1033F000002011901290139014900F9010901C21A7
:1034000008A8FCF7A8FE20216846FCF7A4FE2F4878
:103410002F4908604720486000212D48816040F214
:10342000E731C1600021016141618161FEF7CEFE9B
:1034300008B1FDF77BFE4FF48050119011A924488C
:10344000FEF756FF08B1FDF771FE2148FFF787FA36
:1034500008B1FDF76BFE00200F9010900FA91C48DB
:10346000FEF772FE08B1FDF761FE602008900020B3
:1034700009900A900B900C900D900E90002208A9D4
:103480001348FFF7EAF908B1FDF750FE042208A936
:103490000F48FFF7E2F908B1FDF748FE0020009061
:1034A00001900290039004904FF40050059000208A
:1034B000079069460648FEF70DFE08B1FDF736FE97
:1034C0000348FFF79DF915B000BD0000002C014036
:1034D000B400002000B58BB0242102A8FCF73BFE0D
:1034E0000020009001904FF08040174908600020B4
:1034F00048600021144881604FF6FF71C1600021CF
:10350000016181610120029000200390012004905C
:103510000020059006900790012008900020099057
:103520000A9002A90848FEF769FF08B1FDF7FEFD01
:1035300000200090019069460348FEF705FE08B19F
:10354000FDF7F4FD0BB000BDFC00002000B58BB012
:10355000242102A8FCF7FFFD0020009001901848EC
:1035600018490860002048600021164881604FF625
:10357000FF71C16000210161816101200290002082
:1035800003900120049000200590069007900120F0
:103590000890002009900A9002A90A48FEF72EFF21
:1035A00008B1FDF7C3FD0020009001906946054871
:1035B000FEF7CAFD08B1FDF7B9FD0BB000BD000074
:1035C000000800404401002010B50B480B4908607A
:1035D0004FF4E1304860002108488160C16001611A
:1035E0000C21416100218161C161FFF757FC08B1E5
:1035F000FDF79CFD10BD0000004400408C01002040
:1036000010B50B480B4908604FF4E13048600021C9
:1036100008488160C16001610C2141610021816124
:10362000C161FFF73BFC08B1FDF780FD10BD000054
:1036300000480040D401002000BFFEE700BFFEE7C5
:1036400070B5002418E004F1B000002100F00BF97F
:103650000021084600F007F90021102000F003F9CE
:10366000002505E00121002000F0FDF8681CC5B22E
:10367000802DF7DB601CC4B2082CE4DB70BD704702
:1036800010B5FFF7FCFF0021AE2000F0ECF80021A0
:10369000084600F0E8F80021102000F0E4F80021CE
:1036A000402000F0E0F80021B02000F0DCF800211C
:1036B000812000F0D8F80021FF2000F0D4F800218C
:1036C000A12000F0D0F80021A62000F0CCF80021C5
:1036D000A82000F0C8F800213F2000F0C4F8002125
:1036E000C82000F0C0F80021D32000F0BCF8002171
:1036F000084600F0B8F80021D52000F0B4F8002109
:10370000802000F0B0F80021D82000F0ACF80021B3
:10371000052000F0A8F80021D92000F0A4F800212D
:10372000F12000F0A0F80021DA2000F09CF8002140
:10373000122000F098F80021DB2000F094F800211E
:10374000302000F090F800218D2000F08CF800214E
:10375000142000F088F80021AF2000F084F810BD9C
:1037600070B504460D4605F1B000002100F07BF86D
:10377000102141EA1410002100F075F804F00F0048
:10378000002100F070F870BD2DE9F04707460E46A5
:103790009046994600250024A8F12000C5B27F2F4D
:1037A00002DD0027B01CC6B2B9F1100F24D131469A
:1037B0003846FFF7D5FF002408E004EB0511194A4D
:1037C000505C012100F04FF8601CC4B2082CF4DBFF
:1037D000701CC1B23846FFF7C3FF002409E004EBB8
:1037E000051108310F4A505C012100F03CF8601CC3
:1037F000C4B2082CF3DB12E031463846FFF7B0FFC5
:1038000000240AE005EB4501074A02EB4101085D8F
:10381000012100F028F8601CC4B2062CF2DBBDE8E0
:10382000F087000018520008F04F00082DE9F04121
:1038300004460F461546984600260FE0AA5D43460B
:1038400039462046FFF7A0FF04F10800C4B2782CE7
:1038500002DD0024B81CC7B2701CC6B2A85D0028E7
:10386000ECD1BDE8F08170B504460D461DB1E0B263
:1038700000F060FE02E0E0B200F046FE70BD000025
:103880002DE9FC5F04460D46601B3449086008467C
:10389000006810F1020F05DD08460068022801DA11
:1038A000002008602D4909682D4A1268022303FB95
:1038B00012112C4A126811442B4A126801FB02F0C3
:1038C000FCF7AAFD019025480068FCF7A5FD82469B
:1038D000264801685046FCF76DFD80461F4909687F
:1038E0001F4A1268881AFCF797FD0090204801686B
:1038F0000098FCF75FFD82461E480068FCF78CFDCF
:1039000083465146FCF7FEFC81464146FCF7FAFC33
:1039100007460199FCF7F6FC0646FCF786FD1549BB
:10392000086008460068B0F57A7F03DD4FF47A70CE
:10393000086007E00F48006810F57A7F02DA0E4849
:103940000C49086005480068054908600846006899
:103950000449086007480068BDE8FC9F8400002017
:10396000880000208C0000207C00002078000020CF
:10397000740000208000002018FCFFFF2DE9FC5F90
:1039800004460D46601B344908600846006810F183
:10399000020F05DD08460068022801DA00200860F1
:1039A0002D4909682D4A1268022303FB12112C4A83
:1039B000126811442B4A126801FB02F0FCF72CFD3F
:1039C000019025480068FCF727FD824626480168DB
:1039D0005046FCF7EFFC80461F4909681F4A1268F1
:1039E000881AFCF719FD0090204801680098FCF740
:1039F000E1FC82461E480068FCF70EFD83465146F6
:103A0000FCF780FC81464146FCF77CFC07460199A7
:103A1000FCF778FC0646FCF708FD154908600846E7
:103A20000068B0F57A7F03DD4FF47A70086007E034
:103A30000F48006810F57A7F02DA0E480C490860DA
:103A400005480068054908600846006804490860A0
:103A500007480068BDE8FC9F980000209C000020FB
:103A6000A00000207C0000207800002074000020CE
:103A70009400002018FCFFFF7047000008B50849BB
:103A80000968C9084FF47A72B1FBF2F14143009121
:103A900000BF00BF00994A1E00920029F9D108BD5D
:103AA000B000002010B500224FF400410148FDF79E
:103AB000C1FE10BD0010014010B50122D103024823
:103AC000FDF7B8FE10BD000000100140704710B5B2
:103AD000FDF7BCFE10BD00B58FB0282105A8FCF78E
:103AE0003AFB14216846FCF736FB012005900004E0
:103AF0000690002007900120099002200C90C1033D
:103B00000D914FF4E0110E9105A8FEF795F808B15C
:103B1000FDF70CFB0F200090022001900020029086
:103B20004FF4806003900020049002216846FDF766
:103B30005FFF08B1FDF7FAFA0FB000BD7047000053
:103B400010B50248FEF791FD10BD0000B400002042
:103B500010B50248FEF789FD10BD000044010020A9
:103B600010B50268184B984208D0B0F1804F05D0CC
:103B7000164B984202D0164B984203D122F07002A5
:103B80004B681A43104B984208D0B0F1804F05D0D3
:103B90000E4B984202D00E4B984203D122F4407251
:103BA000CB681A4322F080034C6943EA04020260A6
:103BB0008B68C3620B688362034B984201D10B6927
:103BC00003630123436110BD002C01400004004049
:103BD0000008004030B501F01F05012404FA05F388
:103BE000046A9C430462046A01F01F0502FA05F5A9
:103BF0002C43046230BD30B50C46816821F47F410E
:103C000042EA032525432943816030BD0A46816885
:103C100021F0700142F007031943816070470000F2
:103C200030B5026A056A25F00105056243688469BA
:103C300024F0700424F003040D682C4322F00202E7
:103C40008D682A430D4DA84206D100BF22F008021C
:103C5000CD682A4322F00402084DA84207D123F47C
:103C6000807323F400734D692B438D692B434360AC
:103C700084614D684563026230BD0000002C014044
:103C800030B5026A056A25F010050562436884694B
:103C900024F4E04424F440740D6844EA052422F03E
:103CA00020028D6842EA05120E4DA84207D100BFDE
:103CB00022F08002CD6842EA051222F04002094D4E
:103CC000A84209D123F4806323F400634D6943EAD9
:103CD00085038D6943EA8503436084614D6885638C
:103CE000026230BD002C014030B5026A056A25F43D
:103CF000807505624368C46924F0700424F00304ED
:103D00000D682C4322F400728D6842EA05220F4DA3
:103D1000A84207D100BF22F40062CD6842EA052222
:103D200022F48062094DA84209D123F4805323F480
:103D300000534D6943EA05138D6943EA0513436057
:103D4000C4614D68C563026230BD0000002C0140B3
:103D500030B5036A056A25F4805505624468C26976
:103D600022F4E04222F440720D6842EA052223F474
:103D700000538D6843EA0533064DA84204D124F46C
:103D800080444D6944EA85144460C2614D6805640D
:103D9000036230BD002C014030B50B461446026A68
:103DA000056A25F001050562816921F0F00141EA0B
:103DB000041122F00A021A438161026230BD30B55B
:103DC0000B461446026A056A25F0100505628169F2
:103DD00021F4704141EA043122F0A00242EA0312C8
:103DE0008161026230BD02681168026851687047E3
:103DF00010B50B480068C06840F020000849096809
:103E0000C860012207490648FEF769FE06480068B7
:103E1000006820F0040004490968086010BD000033
:103E20008C0100205A0000201C020020026811684A
:103E3000026851687047000010B50B480068C06800
:103E400040F0200008490968C86001220749064877
:103E5000FEF745FE06480068006820F004000449AB
:103E60000968086010BD0000D4010020580000203F
:103E7000A402002070B504460D4606490648FCF72A
:103E800075F9012005490870020202490448FEF74D
:103E900026FE70BDAC06002000000020410000207E
:103EA0008C01002070B505460C462246054906489F
:103EB000FFF72EF94FF4807202490348FEF70FFE18
:103EC00070BD0000AC040020D401002070B5054690
:103ED0006C6A0020E085E0842046FEF755FE70BD48
:103EE00070B506460025746A20684069C0F3C015A5
:103EF00094F84100212805D125B10020E084204616
:103F000000F0FBF820684069C0F3801594F8420087
:103F1000222805D125B10020E085204600F0A7F831
:103F2000606C40F0100060642046FEF72DFE70BD0E
:103F300070B505466C6A2868006800F0200000280B
:103F400042D1E08500BF00BF21680C3151E8001F5D
:103F500021F4807021680C3141E80002002AF3D17D
:103F600000BF00BF00BF2168143151E8001F21F0DD
:103F700001002168143141E80002002AF3D100BF9A
:103F800000BF00BF2168143151E8001F21F040003C
:103F90002168143141E80002002AF3D100BF20203B
:103FA00084F84200206B01280ED100BF00BF2168B9
:103FB0000C3151E8001F21F0100021680C3141E85C
:103FC0000002002AF3D100BF00206063206B0128AB
:103FD00004D1A18D2046FEF7BBFD02E02046FFF78D
:103FE00095F870BD70B505466C6A01206063206B62
:103FF000012805D1A08D41082046FEF7A9FD02E069
:104000002046FFF784F870BD70B505466C6A2868D5
:10401000006800F02000F8B90020E08400BF00BF75
:104020002168143151E8001F21F08000216814310B
:1040300041E80002002AF3D100BF00BF00BF2168A1
:104040000C3151E8001F41F0400021680C3141E87B
:104050000002002AF3D102E02046FFF79FF870BD6E
:1040600070B50446656A2846FFF799F870BD00BF31
:1040700000BF02680C3252E8002F22F490710268EF
:104080000C3242E80013002BF3D100BF00BF00BF89
:104090000268143252E8002F22F001010268143243
:1040A00042E80013002BF3D100BF016B01290ED1B0
:1040B00000BF00BF02680C3252E8002F22F010014E
:1040C00002680C3242E80013002BF3D100BF20211C
:1040D00080F8421000210163704710B50446206843
:1040E000C06820F040002168C860202084F84100AA
:1040F0002046FFF753F8002010BD00BF00BF026844
:104100000C3252E8002F22F0C00102680C3242E863
:104110000013002BF3D100BF202180F8411070471D
:1041200010B5FFF789FEFFF763FE10BDF8B5044632
:1041300094F84200222875D1A068B0F5805F0CD1B8
:10414000206950B90025A66A20684068C0F30800BD
:104150003080A06A801CA06215E0A56A0026A068D5
:10416000B0F5805F03D0A06828B9206918B920682D
:104170004068287004E02068406800F07F002870E4
:10418000A06A401CA062E08D401E80B2E08500283D
:1041900046D12068C06820F020002168C8602068EF
:1041A000C06820F480702168C8602068406920F0F1
:1041B000010021684861202084F8420000206063EB
:1041C000206B012826D10020206300BF00BF21689A
:1041D0000C3151E8001F21F0100021680C3141E83A
:1041E0000002002AF3D100BF2068006800F0100030
:1041F00010280AD100BF00200090206800680090BD
:1042000020684068009000BF00BFA18D2046FEF7E7
:104210009FFC02E02046FEF779FF0020F8BD01E098
:104220000020FBE70220F9E770B504462168096920
:1042300021F44051E2681143226811612269A168AA
:104240001143626941EA02052168C96841F20C62C2
:10425000914329432268D1602168496921F4407162
:10426000A2691143226851612D4A2168914202D10D
:10427000FDF79AFC01E0FDF787FC00EBC00101EBC4
:10428000001162689200B1FBF2F100EBC00202EB98
:10429000001263689B00B2FBF3F26423B2FBF3F2FB
:1042A00002EBC20303EB0212A1EB8201322202EB0A
:1042B00001116422B1FBF2F101F0F00100EBC00248
:1042C00002EB001263689B00B2FBF3F26423B2FBC3
:1042D000F3F201EB021200EBC00101EB0011636885
:1042E0009B00B1FBF3F100EBC00303EB0013666826
:1042F000B600B3FBF6F36426B3FBF6F303EBC30699
:1043000006EB0313A1EB8301322303EB01116423BA
:10431000B1FBF3F101F00F0111442268916070BD0F
:104320000038014077B581B0044615460298A06276
:10433000A58500206064222084F842002848E16BB3
:1043400088622848E16BC8622748E16B0863002057
:10435000E16B486302AE32682368191D2B46E06B9F
:10436000FDF76CF800BF0020009020680068009006
:1043700020684068009000BF00BF206970B100BF96
:1043800000BF21680C3151E8001F41F480702168A2
:104390000C3141E80002002AF3D100BF00BF00BF8A
:1043A0002168143151E8001F41F0010021681431E7
:1043B00041E80002002AF3D100BF00BF00BF21681E
:1043C000143151E8001F41F040002168143141E8E8
:1043D0000002002AF3D100BF002004B070BD00002D
:1043E000313F0008E53F0008E13E0008014691F832
:1043F0004100212828D18868B0F5805F0BD1086979
:1044000048B90A6A1088C0F308000B685860086A47
:10441000801C086205E00B6A581C086218780B685B
:104420005860C88C401E80B2C88458B90868C068FB
:1044300020F080000B68D8600868C06840F0400039
:104440000B68D860002070470220FCE710B50248D6
:10445000FEF7B2FB10BD00008C01002010B5024831
:10446000FEF7AAFB10BD0000D401002000BFFEE74C
:104470000FB438B505A8009040F201110748009B21
:10448000049A00F081F884B200200090224603498B
:104490000348FEF73DFE38BC5DF814FBAC05002078
:1044A000D40100202DE9F04105462C4600224FF4AE
:1044B00080711448FDF7BEF900261FE0274607F07B
:1044C0008007802F05D1012251020E48FDF7B2F975
:1044D00005E000224FF400710A48FDF7ABF96006D1
:1044E000040E012211020748FDF7A4F900224FF43F
:1044F00080710448FDF79EF9701CC6B2082EDDDB02
:10450000BDE8F081000C014010B50446FEF74AFEFC
:104510007820FFF7C7FFFEF773FE0020FFF7C2FF0A
:10452000FEF76EFE2046FFF7BDFFFEF769FEFEF7C1
:1045300053FE10BD10B50446FEF734FE7820FFF799
:10454000B1FFFEF75DFE4020FFF7ACFFFEF758FE1F
:104550002046FFF7A7FFFEF753FEFEF73DFE10BD16
:104560000FB4084B10B504A902AA039800F014F97F
:10457000044602A9002000F09DFC204610BC5DF816
:1045800014FB0000B54E00087CB50C001D46164615
:10459000014601D0601E00E00020CDE90010064B6E
:1045A0006A462946304600F0F7F8002C02D0009AFF
:1045B000002111707CBD00009F4E00080248006879
:1045C000C0F30220704700000CED00E010B5002899
:1045D00004DB0A07130E054A135406E00A07140EFB
:1045E000034A00F00F031B1FD45410BD00E400E089
:1045F00018ED00E002E008C8121F08C1002AFAD135
:1046000070477047002001E001C1121F002AFBD152
:10461000704700002DE9FF5F82B00021DDE9043022
:10462000020DDDF840B0034318D044F61050A2F25A
:10463000FF3242431514119801281FD0A5EB0B003F
:10464000401C5FEA000A4FF000064E4FDFF8389139
:10465000B046504615D5CAF1000413E01198012464
:104660004AA3012801D16FEA0B010298119AC0E90F
:104670000031C0E9024206B0BDE8F09FCBF1000076
:10468000DFE704460021404A491842EB0450CDE9D7
:10469000001012E0E00707D032463B46404649464C
:1046A000FCF744F88046894632463B461046194698
:1046B000FCF73CF806460F466410002CEAD1DDE911
:1046C0000401DDE90023BAF1000F06DAFCF72EF849
:1046D00042464B46FCF72AF805E0FCF799F84246BB
:1046E0004B46FCF795F804460E460022284BFCF793
:1046F00017F903D84FF0FF30014607E00022254BA1
:1047000020463146FBF76BFFFCF7F1F8102409E077
:10471000002C0ADB0A220023FBF7B6FE039B303293
:104720001A55641E50EA0102F2D1641C039AC4F1C6
:1047300011031444119A012A03D0012208430DD118
:104740000AE0084304D000204FF0110B119072E7EB
:10475000A3EB0B056D1E0DE05B4504DD4FF0000281
:1047600005F1010504E003DA4FF00002A5F10105AF
:10477000002AECD002981199C0E90231C0E9004545
:1047800079E70000000014400000F03F3000000016
:104790000000F0430000E03F2DE9FF4F95B09A463E
:1047A000884606460025EEE1252877D100242746D5
:1047B000F94A0121039400E0044316F8013F203B2D
:1047C00001FA03F01042F7D130782A2811D06FF0A7
:1047D0002F033078A0F13002092A16D8039A44F04A
:1047E000020402EB820203EB42021044761C0390A7
:1047F000EFE758F8042B0392002A03DA504244F4FE
:104800000054039044F00204761C30782E2816D110
:1048100016F8010F44F004042A280DD06FF02F027F
:104820003078A0F13003092B09D807EB870302EB9E
:104830004303C718761CF3E758F8047B761C3078DE
:104840006C280FD006DC4C2817D068280DD06A28B9
:1048500014D104E0742810D07A280FD10DE044F46C
:1048600000140AE044F4801401E044F44014727827
:10487000824202D104F58014761C761C30786628BA
:104880000BD013DC582877D009DC002875D04528D8
:10489000F6D04628F4D047281AD193E118E06328CF
:1048A00035D0642879D0652812D18BE1702873D077
:1048B00008DC6728F1D069286FD06E280DD06F28EA
:1048C00006D1ACE073282CD0752874D0782853D04A
:1048D0005246179990476D1C54E1C4F302500228C8
:1048E00009D003280DD0D8F8001004280DD00D6091
:1048F00008F1040846E1D8F80010EA17C1E90052AF
:10490000F6E7D8F800100D80F2E70D70F0E718F820
:10491000041B8DF8001000208DF80100EB460120EB
:1049200003E058F804BB4FF0FF3061074FF000017F
:1049300002D40DE009F101018946B9420FDA81453F
:10494000F8DB1BF809100029F4D108E009F1010196
:1049500089468142FADB1BF809100029F6D1039839
:104960005346A0EB090721463846179A00F080FA13
:10497000284400EB090507E044E008E10DE01BF8DE
:10498000010B524617999047B9F10109F7D25346E6
:1049900021463846179AF2E039E00A21C4F3025260
:1049A0004FF0000B0091022A06D058F8040BC117F3
:1049B000032A09D00AE023E008F1070020F00702EB
:1049C000F2E80201904605E000B2C117042A01D1C5
:1049D00040B2C117002906DA0A460021404261EBC5
:1049E00002012D2202E0220504D52B228DF804209D
:1049F000012203E0E20701D02022F7E7914657E0C9
:104A00000A2100E010214FF0000B00910BE0102173
:104A10004FF0000B44F004040827009103E0082045
:104A20004FF0000B0090C4F30252022A05D058F850
:104A3000040B0021032A08D008E008F1070020F049
:104A40000702F2E80201904603E080B2042A00D196
:104A5000C0B24FF0000922072AD53278702A07D059
:104A6000DDF800C08CF0100C5CEA0B0C05D00EE0F9
:104A700040228DF80420012208E050EA010306D00C
:104A800030238DF804308DF8052002229146009BDA
:104A900083F0080353EA0B030AD150EA010201D163
:104AA000620705D530228DF804204FF001097F1EE2
:104AB0003278582A04D039A20C920CAA02920BE048
:104AC0003BA2F9E75B46009AFBF7DEFC0C9B9B5C84
:104AD000029A521E0292137050EA0102F2D1029819
:104AE00004A9081A00F1200B600702D524F48034D1
:104AF00000E001275F4502DDA7EB0B0000E000208E
:104B000000EB0B01009003984944401A0390E00326
:104B100006D453462146179A039800F0A9F9054494
:104B2000002706E001A85246C05D179990476D1C0A
:104B30007F1C4F45F6DBE0030CD553462146179A00
:104B4000039800F095F9054404E030205246179987
:104B500090476D1C0099481E00900029F5DC08E084
:104B60000298029952460078491C02911799904781
:104B70006D1CBBF10001ABF1010BF1DC5BE100F05E
:104B800065F90544761C307800287FF40DAE19B025
:104B90002846BDE8F08F000009280100303132338B
:104BA0003435363738396162636465660000000069
:104BB0003031323334353637383941424344454653
:104BC00000000000600700D4062708F1070020F06D
:104BD0000700F0E80223804603F0004C5FEA0C0077
:104BE00001D097A009E0200501D596A005E0E007D7
:104BF00001D095A001E0AFF24C001390307823F083
:104C0000004365280CD006DC452809D046281DD075
:104C100047287FD13BE0662818D067287AD136E054
:104C20000021112F01DB112000E0781CCDE90001EB
:104C300004A90CA8FFF7EEFCDDE90D010C9A4FF07A
:104C4000000B07F10109109200914EE04FF0004077
:104C50000097CDE9011004A90CA8FFF7DBFCDDE902
:104C60000D020C9B0F994FF0000B91461093009290
:104C700011B9791C00EB0109B7EB090003D4C0F1AD
:104C8000FF3B07F10109A9EB0700019042E0012F6A
:104C900000DA01270021112F01DD112000E0384644
:104CA000CDE9000104A90CA8FFF7B4FCDDE90D0172
:104CB0000C9A00914FF0000BB946109221070FD4C7
:104CC000009A4A4503DA914601E0A9F10109B9F1D8
:104CD000010F05DD109AA9F10101515C3029F4D0D2
:104CE000B84202DA10F1040F03DA0121CDE9011014
:104CF00010E0002803DC8344A9EB000102E0411C22
:104D0000494500DD8946A0EB0B00401C01904FF0A7
:104D100000400290200705D40198484502DB4FF07F
:104D2000FF30019000208DF84B0002980DF14B07E9
:104D3000B0F1004F25D002200C902B200D9002984E
:104D400000280CDA404202902D200D9007E00A2145
:104D50000298FBF783FB3031029007F8011D0C9994
:104D6000481E0C900029F2DC02980028EFD1791E31
:104D70000D980870307800F0200040F0450007F8EA
:104D8000020D11A8C01BC01D02901398007800B13D
:104D9000012000EB0901019801EBE0710298014448
:104DA0000398401A401E0390E00306D45346214660
:104DB000179A039800F05CF805441398007818B12E
:104DC0005246179990476D1CE00323D55346214660
:104DD000179A039800F04CF805441BE0BBF1000F54
:104DE00007DB0098584504DD1098179910F80B0060
:104DF00001E0179930205246904701980BF1010BC2
:104E0000401E05F10105019004D12E20524617994C
:104E100090476D1CB9F10001A9F10109DEDC05E044
:104E200017F8010B5246179990476D1C0299481EBE
:104E300002900029F4DC53462146179A03989EE617
:104E40002D0000002B000000200000002DE9F041A3
:104E5000044600251E461746880404D405E039465A
:104E60002020B0476D1C641EF9D52846BDE8F081AE
:104E70002DE9F041044600251E469046C80301D5A1
:104E8000302700E02027880404D505E04146384655
:104E9000B0476D1C641EF9D52846BDE8F0814A680C
:104EA000002A06D00A68531C0B6010704868401E28
:104EB000486070470A68531C0B6010707047000010
:104EC00010B50120FCF71CF90E4908600220FCF720
:104ED00017F90D4908600120FCF700F90220FCF7E2
:104EE000FDF80848016809A0FFF7C2FA0220FCF7A4
:104EF000F3FA054801680AA0FFF7BAFA0220FCF7A6
:104F0000EBFA10BD5C000020600000206361725F5E
:104F100073706565645F313D25640D0A0000000013
:104F20006361725F73706565645F323D25640D0A6D
:104F300000000000FCF796FCFEF7CDFDFEF7D4F96B
:104F4000FEF7A0F9FEF740FBFEF7C4FAFEF7FEFA03
:104F5000FEF74CFAFEF754FBFBF73CFF01E0FBF7D2
:104F60007BFFFCE770B505460C46002D0CDB002CE2
:104F70000ADB1E48006845631C4800688463FEF72E
:104F800063F9FEF799FD2FE0002D0DDC002C0BDB03
:104F9000FEF750F96D42FEF78FFD14480068456337
:104FA0001248006884631FE0002D0DDB002C0BDC31
:104FB000FEF74AF96442FEF775FD0C480068456348
:104FC0000A48006884630FE0002D0DDC002C0BDC28
:104FD000FEF730F9FEF766FD6D4264420348006853
:104FE000456302480068846370BD0000B40000207F
:104FF0000000000000000000002F0000000007007B
:10500000070000147F147F1400242A7F2A120062F4
:1050100064081323003649552250000005030000A0
:1050200000001C224100000041221C000014083E28
:1050300008140008083E0808000000A060000008EE
:105040000808080800006060000000201008040242
:10505000003E5149453E0000427F40000042615100
:105060004946002141454B31001814127F1000279A
:1050700045454539003C4A4949300001710905035D
:1050800000364949493600064949291E000036368E
:1050900000000000563600000008142241000014F1
:1050A00014141414000041221408000201510906CE
:1050B00000324959513E007C1211127C007F49494F
:1050C0004936003E41414122007F4141221C007F80
:1050D00049494941007F09090901003E4149497A8E
:1050E000007F0808087F0000417F41000020404108
:1050F0003F01007F08142241007F40404040007F74
:10510000020C027F007F0408107F003E4141413EB7
:10511000007F09090906003E4151215E007F0919FF
:1051200029460046494949310001017F0101003FFC
:105130004040403F001F2040201F003F4038403F7C
:1051400000631408146300070870080700615149E0
:10515000454300007F41410000552A552A55000073
:1051600041417F00000402010204004040404040F1
:10517000000001020400002054545478007F484489
:10518000443800384444442000384444487F0038C0
:105190005454541800087E0901020018A4A4A47CE9
:1051A000007F080404780000447D400000408084B3
:1051B0007D00007F102844000000417F4000007CFB
:1051C00004180478007C0804047800384444443807
:1051D00000FC242424180018242418FC007C080453
:1051E000040800485454542000043F444020003C2C
:1051F0004040207C001C2040201C003C4030403CB3
:10520000004428102844001CA0A0A07C0044645442
:105210004C44141414141414000000000000000086
:105220000000000000000000000000F80000000086
:10523000000000333000000000100C06100C0600C7
:10524000000000000000000040C07840C07840002E
:10525000043F04043F040400007088FC0830000090
:10526000001820FF211E0000F008F000E0180000E8
:1052700000211C031E211E0000F0088870000000A1
:105280001E2123241927211010160E0000000000F3
:105290000000000000000000000000E01804020010
:1052A000000000071820400000020418E000000081
:1052B0000040201807000000404080F0804040007F
:1052C0000202010F01020200000000F000000000D5
:1052D0000101011F010101000000000000000000A9
:1052E00080B070000000000000000000000000001E
:1052F00000010101010101010000000000000000A7
:105300000030300000000000000000008060180441
:10531000006018060100000000E010080810E0001E
:10532000000F102020100F00001010F800000000E7
:105330000020203F2020000000700808088870002E
:1053400000302824222130000030088888483000AE
:105350000018202020110E000000C02010F80000CE
:1053600000070424243F240000F808888808080067
:105370000019212020110E0000E01088881800007C
:10538000000F112020110E0000380808C83808004E
:105390000000003F000000000070880808887000CE
:1053A000001C222121221C0000E010080810E0004F
:1053B0000000312222110F00000000C0C0000000D8
:1053C00000000030300000000000008000000000FD
:1053D00000008060000000000000804020100800F5
:1053E00000010204081020004040404040404000BE
:1053F0000404040404040400000810204080000099
:105400000020100804020100007048080808F0009D
:105410000000003036010000C030C828E810E0006D
:105420000718272423140B000000C038E0000000F8
:10543000203C23020227382008F888888870000062
:10544000203F202020110E00C03008080808380036
:10545000071820202010080008F808080810E000AD
:10546000203F202020100F0008F88888E80810004E
:10547000203F20202320180008F88888E808100022
:10548000203F200003000000C0300808083800005A
:1054900007182020221E020008F808000008F8085B
:1054A000203F210101213F20000808F808080000E2
:1054B0000020203F2020000000000808F808080015
:1054C000C08080807F00000008F888C0281808008D
:1054D000203F20012638200008F8080000000000C6
:1054E000203F20202020300008F8F800F8F80800BD
:1054F000203F003F003F200008F830C00008F808B7
:10550000203F200007183F00E01008080810E000C6
:105510000F10202020100F0008F808080808F000DD
:10552000203F210101010000E01008080810E00000
:105530000F18242438504F0008F888888888700095
:10554000203F2000030C3020007088080808380035
:105550000038202121221C00180808F8080818002B
:105560000000203F2000000008F808000008F808AC
:10557000001F202020201F000878880000C838085D
:10558000000007380E010000F80800F80008F800D5
:10559000033C0700073C030008186880806818086F
:1055A00020302C03032C30200838C800C8380800ED
:1055B0000000203F2000000010080808C83808003C
:1055C0002038262120201800000000FE02020200E0
:1055D0000000007F40404000000C30C00000000090
:1055E000000000010638C00000020202FE000000B8
:1055F000004040407F00000000000402020204005E
:10560000000000000000000000000000000000009A
:105610008080808080808080000202040000000082
:10562000000000000000000000008080808000007A
:105630000019242222223F2008F800808000000068
:10564000003F112020110E0000000080808000002B
:10565000000E112020201100000000808088F8003A
:10566000000E112020103F2000008080808000006C
:10567000001F222222221300008080F088888818D0
:105680000020203F202000000000808080808000DB
:10569000006B94949493600008F800808080000070
:1056A000203F210000203F2000809898000000004B
:1056B0000020203F2020000000000080989800007B
:1056C00000C08080807F000008F80000808080009B
:1056D000203F24022D302000000808F800000000C0
:1056E0000020203F2020000080808080808080007B
:1056F000203F20003F20003F80800080808000000D
:10570000203F210000203F2000008080808000009A
:10571000001F202020201F008080008080000000CB
:1057200080FFA12020110E000000008080808000FA
:10573000000E112020A0FF808080800080808000EB
:1057400020203F2120000100000080808080800018
:105750000033242424241900008080E0808000008D
:105760000000001F202000008080000000808000DA
:10577000001F202020103F2080808000008080803B
:1057800000010E30080601008080008000808080CB
:105790000F300C030C300F000080800080808000F0
:1057A0000020312E0E31200080808000008080801B
:1057B00080818E70180601000080808080808000CB
:1057C0000021302C2221300000000000807C0202E9
:1057D00000000000003F404000000000FF0000000B
:1057E00000000000FF0000000002027C80000000BA
:1057F0000040403F000000000006010102020404D6
:10580000000000000000000002030405060708096C
:105810000A0B0C0D0E0F101001020000000000001A
:10582000000001020304060708090000000001024D
:105830000304DDDDDDDDDCBBBBDDDDDDDDDDDDDD90
:10584000DDDD988888888888888877777777778873
:1058500088888555555666666666666666666668B5
:1058600088888333333222222222222222222228B3
:10587000888D00009458000800000020B40000004B
:10588000F445000848590008B4000020FC0B000053
:10589000044600083130302C3130302C31303000AB
:1058A00000000000000000000000000000000000F8
:1058B00000000000000000000000000000000000E8
:1058C00000000000000000000000000000000000D8
:1058D0000000000000010000B40000000000000013
:1058E00000000000000000000000000000000000B8
:1058F0000000000000000000000000003333F33F10
:10590000000000002800000000002041000000000E
:105910000000000000000000000000000000000087
:105920000000000000000000000000000000000077
:105930000000000000000000000000001000000057
:08594000010000000024F40046
:04000005080000ED02
:00000001FF
